:020000040000FA
:100000000A128A11EF2FFF1B0D2883137F18831705
:100010000008840A0319FF0A080000308A00040857
:10002000840A82070034013400340A340034643412
:100030000034E8340334103427342034203420349E
:10004000003453344F344C340034543445344D343C
:100050000034483455344D3400342534643400348D
:060060005034523400345C
:10075C00F0007008831203139300080001300A1292
:10076C008A11DA230A128A11080083160313141C47
:10077C00C02BC12BBB2B08000A128A11BB230A12F7
:10078C008A118312031313080800F1008312031358
:10079C0008147108860088140D30F000F00BD42B6F
:1007AC008312031388100800F2008312031308103D
:1007BC007208860088140630F1003030F000F00B1F
:1007CC00E52BF10BE52B00008312031388100800B6
:1007DC00F300731DF22BF32BF82B72088316031303
:1007EC009400FD2B70087204831603139400730895
:1007FC0071048312031394000800F5007503031DA4
:10080C00082C092C112C73087F3EF40074088312F9
:10081C000313C100182C7308BF3EF4007408831234
:10082C000313C10041080A128A11DA230A128A1131
:10083C00080083120313B4001B30AD002D08A00078
:10084C003408AE00AF012E08A1002F08A2003030F2
:10085C000A128A11A3250A128A113030F2000030D4
:10086C00F3000A128A11B1240A128A1108001430FA
:10087C00F4007930F300F30B412CF40B412C462C93
:10088C0030300A128A11DA230A128A1130300A1215
:10089C008A11DA230A128A1130300A128A11DA23E9
:1008AC000A128A1138300A128A11DA230A128A11B2
:1008BC0010300A128A11DA230A128A1101300A1234
:1008CC008A11DA230A128A1106300A128A11DA23E3
:1008DC000A128A110E300A128A11DA230A128A11AC
:1008EC0008007808790403197C2C7D2CAC2CFD01B4
:1008FC00FD0A8B2C01300310F80DF90DFF3E031D82
:10090C00812C0130FC007C08FD07F91F8E2C8F2CEC
:10091C00802C79087B02031D952C78087A02031C25
:10092C00982C992C9F2C7808FA027908031CFB034D
:10093C00FB0201300310F90CF80CFF3E031DA02C38
:10094C000130FD02031DAB2CAC2C8F2C7B08F90065
:10095C007A08F8000800F701F801D62C770872071E
:10096C00F5007308F4000318F40AF71FBE2CF40307
:10097C007408F600760883120313FF0075088400D0
:10098C000A128A1103200A128A110A128A11CB2325
:10099C000A128A110130F7070318F80A0030F80719
:1009AC0077087207F5007308F4000318F40AF71FB0
:1009BC00E02CF4037408F600760883120313FF008E
:1009CC00750884000A128A1103200A128A11003A4F
:1009DC00031DF12CF22CB42C0800F501F601700863
:1009EC0071040319FA2CFB2C322DF701F70A092D8F
:1009FC0001300310F00DF10DFF3E031DFF2C0130F3
:100A0C00F4007408F707F11F0C2D0D2DFE2C01308E
:100A1C000310F50DF60DFF3E031D0E2D710873022C
:100A2C00031D1A2D70087202031C1D2D1E2D252D61
:100A3C007008F2027108031CF303F3027514013001
:100A4C000310F10CF00CFF3E031D262D0130F702B4
:100A5C00031D312D322D0D2D7608F1007508F00097
:100A6C000800831603178801890183160313860176
:100A7C001030870088018312031386018801F0016E
:100A8C00F101F20120300A128A11EE230A128A11A6
:100A9C000A128A113D240A128A110A128A11B423ED
:100AAC000A128A11F301F30A01300A128A11032483
:100ABC000A128A111E30F2008030F3000A128A11D9
:100ACC00B1240A128A110430F9007908F3000130BC
:100ADC000A128A1103240A128A111330F200803090
:100AEC00F3000A128A11B1240A128A110930F90092
:100AFC007908F30001300A128A1103240A128A11B0
:100B0C001730F2008030F3000A128A11B1240A1255
:100B1C008A110E30F9007908F30001300A128A119B
:100B2C0003240A128A110F30F2008030F3000A12EB
:100B3C008A11B1240A128A11080083120313AB0024
:100B4C002130A3002308A600742E25302C0603198F
:100B5C00B02DB12DBD2D2C08A3002B08840023082B
:100B6C00831380000130A3002308AB07742EA70168
:100B7C000130A007FF30200784000A128A110D20D3
:100B8C000A128A11AC00A300A4012408003A03192C
:100B9C00D02D742E2308003A0319862E643A0319BB
:100BAC00DB2D0D3A0319DB2D742E260884008313DC
:100BBC000008A900840A0008AA000230A300230838
:100BCC00A607AA1FEA2DEB2DF42D0330A300230852
:100BDC00A704A909AA09A90A0319AA0AAC01AC0A13
:100BEC002C08A3002307013E84000A128A110D2051
:100BFC000A128A11A4000A128A110D200A128A11F3
:100C0C00A50025082A02031D0D2E2408290203180D
:100C1C00102E112E122E1C2E0130A3002308AC070F
:100C2C0005302C06031D1B2E1C2EF62D2708033910
:100C3C000319212E222E2D2E2D30A3002B088400DB
:100C4C002308831380000130A3002308AB072C0872
:100C5C00A3002308A8006B2E0A30F8000030F9001E
:100C6C002808A3002307013E84000A128A110D20D4
:100C7C000A128A11F0000A128A110D200A128A1126
:100C8C00F1002A08F3002908F2000A128A11F32451
:100C9C000A128A117108FB007008FA000A128A11F4
:100CAC0077240A128A117808303E83120313A400A9
:100CBC002408AC002C08A3002B0884002308831301
:100CCC0080000130A3002308AB07FF30A3002308EA
:100CDC00A807280A031D732E742E322E0130A0078C
:100CEC00FF30200784000A128A110D200A128A1183
:100CFC00A3002308AC002C08031D852E862EAB2DDB
:100D0C002B0884008313800108000A128A113725EE
:100D1C000A128A1100300A128A11AE230A128A11A1
:100D2C000A128A11C2230A128A1183120313B50004
:100D3C00B6013508BF003608C00007308312031314
:100D4C00B6007C30B500B50BA92EB60BA92E000051
:100D5C0001300A128A11AE230A128A110A128A1160
:100D6C00C2230A128A1183120313B500B601350887
:100D7C00BD003608BE00073083120313B6007C306A
:100D8C00B500B50BC72EB60BC72E000002300A12E9
:100D9C008A11AE230A128A110A128A11C2230A126C
:100DAC008A1183120313B500B6013508B700360853
:100DBC00B800073083120313B6007C30B500B50BB6
:100DCC00E52EB60BE52E000003300A128A11AE2375
:100DDC000A128A110A128A11C2230A128A11831268
:100DEC000313B500B6013508BB003608BC0007304C
:100DFC0083120313B6007C30B500B50B032FB60B72
:100E0C00032F000004300A128A11AE230A128A1131
:100E1C000A128A11C2230A128A1183120313B50013
:100E2C00B6013508B9003608BA000730831203132F
:100E3C00B6007C30B500B50B212FB60B212F00006E
:100E4C00F301F30A02300A128A1103240A128A11DE
:100E5C000B30F2008030F3000A128A11B1240A120E
:100E6C008A11F301F30A02300A128A1103240A12BE
:100E7C008A118312031337080A128A111F240A12CB
:100E8C008A11093083120313B5003508F3000230C0
:100E9C000A128A1103240A128A110B30F2008030D4
:100EAC00F3000A128A11B1240A128A110930831232
:100EBC000313B5003508F30002300A128A1103241B
:100ECC000A128A11831203133D080A128A111F2475
:100EDC000A128A110E3083120313B5003508F30081
:100EEC0002300A128A1103240A128A110B30F20002
:100EFC008030F3000A128A11B1240A128A110E30C2
:100F0C0083120313B5003508F30002300A128A115C
:100F1C0003240A128A11831203133F080A128A113E
:100F2C001F240A128A11043083120313B5003508EA
:100F3C00F30002300A128A1103240A128A110B30B0
:100F4C00F2008030F3000A128A11B1240A128A11BD
:100F5C00043083120313B5003508F30002300A1273
:100F6C008A1103240A128A11831203133B080A12F2
:100F7C008A111F240A128A11043083120313B5003C
:100F8C003508F30001300A128A1103240A128A115F
:100F9C000B30F2008030F3000A128A11B1240A12CD
:100FAC008A11043083120313B5003508F3000130A5
:100FBC000A128A1103240A128A11831203133908A4
:100FCC000A128A111F240A128A11902E0A128A11EF
:100FDC00002883120313B701B801B901BA01BB0190
:100FEC00BC01BD01BE01BF01C001C10183010A12D8
:040FFC008A118B2E9D
:04400E00F5E0FFFFDB
:00000001FF
