:020000040000FA
:060000000A128A110C280F
:10000800FE00030EF3000A08F4000A128A111D2BE1
:100018000A128A110F28F501F601F701F801831376
:100028004530840057300A128A113B250A128A117A
:1000380083010A128A1120280A128A1181220A12BF
:100048008A1183120313A301A30A02300A128A1128
:10005800D9240A128A110B3083120313A2008030AC
:10006800A3000A128A11CC230A128A1183120313DD
:10007800A301A30A02300A128A11D9240A128A118A
:10008800831203134B080A128A11B9240A128A111F
:10009800093083120313C3004308A30002300A1275
:1000A8008A11D9240A128A110B3083120313A20071
:1000B8008030A3000A128A11CC230A128A1109304F
:1000C80083120313C3004308A30002300A128A11E3
:1000D800D9240A128A11831203134D080A128A11AD
:1000E800B9240A128A110E3083120313C30043087D
:1000F800A30002300A128A11D9240A128A110B307D
:1001080083120313A2008030A3000A128A11CC23A1
:100118000A128A110E3083120313C3004308A30086
:1001280002300A128A11D9240A128A11831203137F
:1001380049080A128A11B9240A128A110430831252
:100148000313C3004308A30002300A128A11D924FA
:100158000A128A110B3083120313A2008030A30005
:100168000A128A11CC230A128A110430831203134B
:10017800C3004308A30002300A128A11D9240A12C4
:100188008A118312031347080A128A11B9240A1222
:100198008A11043083120313C3004308A3000130FB
:1001A8000A128A11D9240A128A110B3083120313F6
:1001B800A2008030A3000A128A11CC230A128A11E5
:1001C800043083120313C3004308A30001300A124A
:1001D8008A11D9240A128A118312031345080A12B4
:1001E8008A11B9240A128A1183160313981CFD2850
:1001F800FE28F82801308312031399008C1E052964
:10020800062902291A08C300C4014308C900440882
:10021800CA00823083120313C400DD30C300C30B4D
:100228001329C40B132983160313981C1C291D2991
:10023800172902308312031399008C1E24292529BB
:1002480021291A08C300C4014308CD004408CE0080
:10025800823083120313C400DD30C300C30B32297C
:10026800C40B322983160313981C3B293C293629D1
:1002780003308312031399008C1E43294429402913
:100288001A08C300C4014308CB004408CC008230DC
:1002980083120313C400DD30C300C30B5129C40B00
:1002A800512983160313981C5A295B2955290430B0
:1002B8008312031399008C1E622963295F291A0887
:1002C800C300C4014308C7004408C8008230831231
:1002D8000313C400DD30C300C30B7029C40B70299D
:1002E80083160313981C79297A29742905308312F7
:1002F800031399008C1E812982297E291A08C300BC
:10030800C4014308C5004408C600823083120313A1
:10031800C400DD30C300C30B8F29C40B8F292528E7
:100328000A128A110C2883120313B9002F30B10066
:100338003108B4006A2A25303A060319A429A529E8
:10034800B1293A08B10039088400310883138000C4
:100358000130B1003108B9076A2AB5010130AE078A
:10036800FF302E0784000A128A1193240A128A1178
:10037800BA00B100B2013208003A0319C4296A2A46
:100388003108003A03197C2A643A0319CF290D3A37
:100398000319CF296A2A3408840083130008B70098
:1003A800840A0008B8000230B1003108B407B81F49
:1003B800DE29DF29E8290330B1003108B504B7097F
:1003C800B809B70A0319B80ABA01BA0A3A08B10053
:1003D8003107013E84000A128A1193240A128A11F5
:1003E800B2000A128A1193240A128A11B300330840
:1003F8003802031D012A320837020318042A052A85
:10040800062A102A0130B1003108BA0705303A0629
:10041800031D0F2A102AEA29350803390319152A5A
:10042800162A212A2D30B100390884003108831397
:1004380080000130B1003108B9073A08B10031082D
:10044800B600612A0A30A8000030A9003608B100B9
:100458003107013E84000A128A1193240A128A1174
:10046800A0000A128A1193240A128A11A1003808DE
:10047800A3003708A2000A128A1186230A128A11D9
:10048800831203132108AB002008AA000A128A115C
:1004980012240A128A11831203132808303EB2006C
:1004A8003208BA003A08B1003908840031088313C9
:1004B80080000130B1003108B907FF30B1003108C0
:1004C800B607360A031D692A6A2A262A0130AE07AA
:1004D800FF302E0784000A128A1193240A128A1107
:1004E800B1003108BA003A08031D7B2A7C2A9F29EB
:1004F80039088400831380010800831203138501DF
:1005080086018801831603138501860198308700C8
:1005180088018316031788018901831603131812AB
:1005280018118316031787151930831603139900BA
:100538009A01831203139817181683160313981633
:1005480083120313A001A101A20124300A128A1107
:10055800F3240A128A118B170B17831203138C11B9
:10056800831603138C1585160A128A114E240A1253
:100578008A110A128A1143250A128A118312031357
:10058800A301A30A01300A128A11D9240A128A1176
:100598001E3083120313A2008030A3000A128A11AE
:1005A800CC230A128A11043083120313A9002908E4
:1005B800A30001300A128A11D9240A128A111330B1
:1005C80083120313A2008030A3000A128A11CC23DD
:1005D8000A128A11093083120313A9002908A300FB
:1005E80001300A128A11D9240A128A11173083128B
:1005F8000313A2008030A3000A128A11CC230A1226
:100608008A110E3083120313A9002908A3000130B0
:100618000A128A11D9240A128A110F30831203137D
:10062800A2008030A3000A128A11CC230A128A1170
:100638000800831203138C1D222B232B7F2B0A12F5
:100648008A1132250A128A11F100F2017108F500A7
:100658007208F60075087604031D332B342B3D2BE6
:100668008312031349080A128A1151250A128A11A2
:100678007C2B75037604031D422B432B4C2B8312D2
:1006880003134D080A128A1151250A128A117C2B6C
:10069800023075067604031D522B532B5C2B8312F4
:1006A80003134B080A128A1151250A128A117C2B4E
:1006B800033075067604031D622B632B6C2B8312A3
:1006C800031347080A128A1151250A128A117C2B32
:1006D800043075067604031D722B732B7C2B831252
:1006E800031345080A128A1151250A128A117C2B14
:1006F800831203138C1174088A00730E8300FE0E94
:100708007E0E090083120313A601A7012008210405
:1007180003198F2B902BC72BA501A50A9E2B0130FF
:100728000310A00DA10DFF3E031D942B0130A40062
:100738002408A507A11FA12BA22B932B013003107E
:10074800A60DA70DFF3E031DA32B21082302031DA1
:10075800AF2B20082202031CB22BB32BBA2B200884
:10076800A2022108031CA303A302261401300310CC
:10077800A10CA00CFF3E031DBB2B0130A502031DDD
:10078800C62BC72BA22B2708A1002608A00008000B
:1007980083120313A701A801F52B27082207A50038
:1007A8002308A4000318A40AA71FDB2BA4038312A1
:1007B80003132408A6002608FF00250884000A124F
:1007C8008A1189240A128A110A128A1120250A120A
:1007D8008A11013083120313A7070318A80A0030EF
:1007E800A80727082207A5002308A4000318A40ABD
:1007F800A71FFF2BA403831203132408A6002608AF
:10080800FF00250884000A128A1189240A128A1115
:10081800003A031D102C112CD12B0800831203134E
:10082800280829040319192C1A2C492CAD01AD0AE2
:10083800282C01300310A80DA90DFF3E031D1E2C06
:100848000130AC002C08AD07A91F2B2C2C2C1D2C1B
:1008580029082B02031D322C28082A02031C352CD8
:10086800362C3C2C2808AA022908031CAB03AB022F
:1008780001300310A90CA80CFF3E031D3D2C0130CC
:10088800AD02031D482C492C2C2C2B08A9002A0842
:10089800A8000800143083120313A4007930A300C1
:1008A800A30B542CA40B542C30300A128A110A259D
:1008B8000A128A1130300A128A110A250A128A117C
:1008C80030300A128A110A250A128A1138300A129F
:1008D8008A110A250A128A1110300A128A110A2569
:1008E8000A128A1101300A128A110A250A128A117B
:1008F80006300A128A110A250A128A110E300A12C3
:100908008A110A250A128A110800FF1B932C8313E7
:100918007F1883170008840A0319FF0A08000430A7
:100928008A000408840A82070034013400340A3437
:10093800003464340034E834033410342734203469
:1009480020342034003453344F344C34003454347D
:1009580045344D340034483455344D34003425344E
:100968006434003450345234003483120313C20008
:100978001B30BB003B08AE004208BC00BD013C0870
:10098800AF003D08B0003E300A128A1197210A12C2
:100998008A113E3083120313A2000030A3000A120A
:1009A8008A11CC230A128A11080083120313A500A6
:1009B8002503031DE02CE12CE72C23087F3EA4002F
:1009C8002408F800EC2C2308BF3EA4002408F800F3
:1009D80078080A128A110A250A128A110800831255
:1009E8000313A300231DF92CFA2CFF2C22088316CD
:1009F80003139400042D2008220483160313940083
:100A0800831203132308210494000800831203139C
:100A1800A2000810220886008814063083120313E7
:100A2800A1002F30A000A00B172DA10B172D1C2DF6
:100A3800831203138810080083120313A1000814FB
:100A48002108860088140C3083120313A000A00B21
:100A58002B2D000083120313881008000A128A1134
:100A68004A250A128A118312031313080800640026
:100A78008001840A04060319003404063C2D013061
:100A88000A128A110A250A128A110800831603130A
:100A9800141C4F2D502D4A2D0800F00070088312A9
:060AA80003139300080097
:04400E00D4E0FFFFFC
:00000001FF
